{
  "contractName": "TGToken",
  "abi": [
    {
      "constant": true,
      "inputs": [],
      "name": "totalSupply",
      "outputs": [
        {
          "name": "",
          "type": "uint256"
        }
      ],
      "payable": false,
      "stateMutability": "view",
      "type": "function"
    },
    {
      "inputs": [],
      "payable": false,
      "stateMutability": "nonpayable",
      "type": "constructor"
    }
  ],
  "bytecode": "0x608060405234801561001057600080fd5b50620f4240600081905550609e806100296000396000f300608060405260043610603f576000357c0100000000000000000000000000000000000000000000000000000000900463ffffffff16806318160ddd146044575b600080fd5b348015604f57600080fd5b506056606c565b6040518082815260200191505060405180910390f35b600054815600a165627a7a72305820812e0c4d700e79ff5850bfa534179b2e076173faa385307b38e789141295624a0029",
  "source": "pragma solidity ^0.4.2;\n\ncontract TGToken {\n\t// Constructor\n\t// Set the total number of tokens\n\t// Read the total number of tokens\n\n\tuint256 public totalSupply;\n\n\tconstructor () public {\n\t\ttotalSupply = 1000000;\n\t}\n}",
  "sourcePath": "/home/batman/ethereum/token/token_sale/contracts/TGToken.sol",
  "compiler": {
    "name": "solc",
    "version": "0.4.24+commit.e67f0147.Emscripten.clang"
  },
  "schemaVersion": "2.0.1",
  "updatedAt": "2018-12-16T03:25:36.214Z"
}